:1018000051C091C076C075C074C073C072C071C041
:1018100070C06FC06EC06DC06CC06BC06AC069C064
:1018200068C067C066C065C064C063C062C061C094
:1018300060C05FC0EC2DFD2DB7B6B0FCFDCF27BF5B
:10184000E895B7B6B0FCFDCF21E1B7B6B6FCF4CF52
:10185000089509021200010100803209040000000D
:101860000000000012011001FF000008C016DC0596
:101870000201010200010E03550053004200610005
:10188000730070001C037700770077002E0066005D
:1018900069007300630068006C002E00640065003E
:1018A0000403090411241FBECFEFD4E0DEBFCDBF77
:1018B00024B7D4E0CEEF39913C30399109F03FEFB5
:1018C00030933D0120933C0111E0A0E0B1E0EAEE4D
:1018D000FFE102C005900D92A630B107D9F711E0E3
:1018E000A6E0B1E001C01D92AC33B107E1F77ED1B3
:1018F0007AC386CFA82FB92F80E090E041E050EA6C
:10190000609530E009C02D9182279795879510F05A
:1019100084279527305EC8F36F5FA8F30895EADF48
:101920008D939D930895CF93CFB7CF93C3954F9B3E
:10193000E9F74F9B09C04F9B07C04F9B05C04F9BCA
:1019400003C04F9B01C0A1C0DF93C0911F01DD27E1
:10195000CA5DDE4F4F9B02C0DF91EBCF2F930F93F9
:101960001F9309B12FEF07FB20F94F933F9319B154
:101970004FEF012707FB21F93BE031C04E7F012FDC
:1019800019B1216028C0102F4D7F2260000009B1DD
:1019900029C04B7F2460012F000019B12BC019B161
:1019A000477F28602AC04F7E09B120612CC04F7D3F
:1019B00019B120622FC04F7B09B1206432C0422789
:1019C00009B149934FEF0000102717FB20F919B117
:1019D0001478C9F1297F91F2012707FB21F909B198
:1019E000237F89F2315058F1102717FB22F919B1E2
:1019F000277E79F2012707FB23F92F7C81F209B1B9
:101A0000102717FB24F92F7971F200C019B10127B3
:101A100007FB25F92F7359F200C009B1102717FBF6
:101A200026F9223040F200C019B1012707FB27F93F
:101A3000243028F64F77206819B10000F9CF11E063
:101A40001CBB002717C03B503195C31BD04011E091
:101A50001CBB0881033CE9F00B34D9F020911D0137
:101A60001981110F1213EDCF093641F10D3211F02A
:101A7000013E39F7009324013F914F911F910F913F
:101A80002F91DF91CCB3C0FD51CFCF91CFBFCF917C
:101A9000189520912401222379F31091220111231A
:101AA00011F5343012F13093220120931E01109170
:101AB0001F013BE0311B30931F0117C00091220131
:101AC00001308CF40AE53091010134FD10C000931F
:101AD0000101C2E1D1E00FC02795A8F45150A9F44B
:101AE000220F0000F9CF4AE503C042ED01C0432FA9
:101AF000C4E1D0E032E01AB114685F9A1AB90BB1B0
:101B000020E414E85F93012756E00BB9279520F4F1
:101B1000515021F4220FF9CF012756E000003B5A23
:101B20000BB9D0F2279528F4515029F4220F000068
:101B3000F9CF012756E027950BB920F4515021F435
:101B4000220FF9CF012756E0299133230BB921F653
:101B50000B7710912301110FC651D0400BB911F032
:101B600010931D0111E01CBB00681AB11B77402FB8
:101B70004B775F9100C000C00BB91AB94BB97CCF4D
:101B8000FC01938184812281203339F48370E82F12
:101B9000F0E0EE5FFE4F80810895283529F4911121
:101BA0000AC0E1E0F0E010C0203599F4911108C0BE
:101BB000E0E0F0E009C09830B9F4E3E0F0E004C000
:101BC000983091F4E2E0F0E089E08093570084914E
:101BD0000895203A09F4F1C1203C19F46581F5D14A
:101BE00003C02F3F09F411EF80E008951AB880E494
:101BF0008BB981E085BF82E085BF83E0319780406B
:101C0000E9F780913C01877F21F480913D01882391
:101C100081F04E9B0EC0F894579A1BB81DBA1092D3
:101C2000690081E085BF15BEE0910A01F0910B01CA
:101C300009951EEF14BE809169008260809369004F
:101C4000E89A579A8CE031978040E9F75798789452
:101C500000912201035007FD2BC180911F01CCE0B0
:101C6000D0E0C81BD109CA5DDE4F80911E018D32C4
:101C700009F0B5C0083009F019C183EC8093120156
:101C80008AE580930101109211014881842F8076AA
:101C90003981882399F186E091E090932101809326
:101CA0002001333031F4CE016BDF8093090124E051
:101CB0008CC03530F9F03A30E9F08CEF830F863084
:101CC00098F48A819B819093100180930F013930A1
:101CD00099F08E8180930E018D81827080930D0129
:101CE00030930C012FEF6BC0323011F41E7F04C013
:101CF000116002C021E069C020E067C08A811092B3
:101D00001B01311106C010921C018BE191E022E011
:101D100050C0353019F4809323013DC03630A9F509
:101D20009B81913019F484E698E104C0923041F42B
:101D300082E598E1909321018093200122E121C066
:101D40009330F1F4811108C080EA98E19093210169
:101D50008093200124E015C0813041F484E898E1AB
:101D600090932101809320012CE10BC0823041F43B
:101D700086E798E190932101809320012EE001C035
:101D800020E080E48093110118C0383079F03930B8
:101D900031F4809325018BE191E020E00AC021E03D
:101DA0003A3009F020E08BE191E003C085E291E058
:101DB00021E090932101809320012F3F31F447FDD2
:101DC0002E8180E88093110107C08F81811104C0AA
:101DD0008E81821708F4282F2093000167C080911C
:101DE000110187FF63C080910E01801708F4082F4E
:101DF000801B80930E01DD24D3948111D12C80911E
:101E00000C018730C0F0CC2EEC2EFD2E8E2D8C19BF
:101E1000801708F048C0D7016D917D0180910F01B6
:101E2000909110019C012F5F3F4F30931001209340
:101E30000F01CBD0EBCF80910D01E0910F01F0911C
:101E40001001DE0100FD0395025048F1F83138F52C
:101E500022D0F8940D901D9021E017D02E2F2E5FE8
:101E60002F7331F0DD2079F0882369F0003059F4C8
:101E700023E00BD010D025E008D00DD007B606FE29
:101E800002C021E102D03296DFCFF89427BFE89557
:101E900011247894089507B600FCFDCF0895F093BF
:101EA0001001E0930F01D110109200011092220155
:101EB0008091010184FF6BC0809100018F3F09F484
:101EC00066C0082F893008F008E0801B809300016D
:101ED0008091120198E8892780931201002309F468
:101EE0004AC08091110187FF28C080910E018017A0
:101EF00008F4082F801B80930E01D0900C01C3E1E1
:101F0000D1E083E191E02C2F281B2017A0F5E09071
:101F10000F01F0901001B6E0BD1518F4C7014DD0C7
:101F200002C0F701849188832196FFEFEF1AFF0A20
:101F3000F0921001E0920F01E4CFE0912001F091C6
:101F4000210186FF0BC083E191E0DC0124912D93F8
:101F50003196202F280F2A13F9CF09C083E191E091
:101F6000DC0121912D93202F280F2A13FACFF09313
:101F70002101E0932001602F83E191E0D0DC0C5F30
:101F80000C3019F08FEF809300010093010184E180
:101F900099B1947831F48150D9F7109223011092BD
:101FA0001D01103118F04E99105104C0123010F07C
:101FB0004E9B125011114CCE2ECEF999FECF92BDF0
:101FC00081BDF89A992780B50895262FF999FECFFB
:101FD0001FBA92BD81BD20BD0FB6F894FA9AF99A46
:0A1FE0000FBE01960895F894FFCF9C
:061FEA00FF5A1E930A00DD
:0400000300001800E1
:00000001FF
