:100000000C9434000C943E000C943E000C943E0082
:100010000C943E000C943E000C943E000C943E0068
:100020000C943E000C943E000C943E000C943E0058
:100030000C943E000C943E000C943E000C943E0048
:100040000C943E000C943E000C943E000C943E0038
:100050000C943E000C943E000C943E000C943E0028
:100060000C943E000C943E0011241FBECFEFD8E04C
:10007000DEBFCDBF0E9440000C945E000C940000D7
:1000800080E284B917B820E083B190E0322F33705A
:100090003F5F02C0959587953A95E2F780FF02C0D1
:1000A0002D9AF2CF2D982F5F3FE78CEF9AE03150D9
:1000B00080409040E1F700C00000E6CFF894FFCF09
:00000001FF
