:1000000033C0000044C0000042C0000040C00000F7
:100010003EC000003CC000003AC0000038C00000F4
:1000200036C0000034C0000032C0000030C0000004
:100030002EC000002CC000002AC0000028C0000014
:1000400026C0000024C0000022C0000020C0000024
:100050001EC000001CC000001AC0000018C0000034
:1000600016C0000014C0000011241FBECFEFD8E05E
:10007000DEBFCDBF11E0A0E0B1E0E6ECFCE002C0E5
:1000800005900D92A230B107D9F732D51AC6B8CF74
:10009000BF92CF92DF92D901E4E3F8E30F921F926F
:1000A000D72EC62EB82E242F1B2E0A2E09952131AD
:1000B000F9F71F900F90DF90CF90BF900895BF92F7
:1000C000CF92DF92D901E4E3FFE30F921F92D72E84
:1000D000C62EB82E242F1B2E0A2E09952131F9F792
:1000E0001F900F90DF90CF90BF900895CF93DF9334
:1000F000FA01E9012138310510F0C0E8D0E0AB0188
:10010000BC0140789E01CF01EAD4CE01DF91CF91AE
:1001100008952F923F924F925F926F927F928F92AB
:100120009F92AF92BF92CF92DF92EF92FF920F9386
:100130001F93CF93DF934A01E9012138310510F075
:10014000C0E8D0E01E01369427946B017C0120E8C2
:10015000C222D40180E090E060E070E08215930557
:10016000B9F0F601E819F909EA0FFB1F259134915E
:100170004D915D912417350709F071E04095509538
:10018000422B532B4F3F5F4F09F061E00196E6CFC2
:10019000772351F1662339F020E030E043E0C701D6
:1001A000B601F801099526013701A12CB12CA21442
:1001B000B30491F0F401219131914F0141E0C30169
:1001C000B201F8010995F2E04F0E511C611C711C3F
:1001D0002FEFA21AB20AEBCF20E030E045E0C701D2
:1001E000B601F801099502C0C0E0D0E0CE01DF9170
:1001F000CF911F910F91FF90EF90DF90CF90BF9024
:10020000AF909F908F907F906F905F904F903F90B6
:100210002F9008956BC00000AAC000008EC000009F
:100220008CC000008AC0000088C0000086C00000AA
:1002300084C0000082C0000080C000007EC00000BA
:100240007CC000007AC0000078C0000076C00000CA
:1002500074C0000072C0000070C000006EC00000DA
:100260006CC000006AC0000068C0000066C00000EA
:1002700064C0000062C0000060C00000EC2DFD2DD5
:10028000B7B6B0FCFDCF27BFE895B7B6B0FCFDCF41
:1002900021E1B7B6B6FCF4CF0895090212000101BE
:1002A000008032090400000000000000120110016B
:1002B000FF000008C016DC050201010200010E0368
:1002C0005500530042006100730070001C0377006A
:1002D000770077002E0066006900730063006800F5
:1002E0006C002E00640065000403090411241FBE85
:1002F000CFEFD8E0DEBFCDBF24B7D8E0CEEF399145
:100300003833399109F03FEF30933E0120933D019E
:1003100011E0A0E0B1E0E4ECF8E702C005900D9236
:10032000A630B107D9F711E0A6E0B1E001C01D92F7
:10033000AD33B107E1F790D1CDC36CCFA82FB92F62
:1003400080E090E041E050EA609530E009C02D91F6
:1003500082279795879510F084279527305EC8F3FC
:100360006F5FA8F30895EADF8D939D930895CF936F
:10037000CFB7CF93C3954F9BE9F74F9B09C04F9BD6
:1003800007C04F9B05C04F9B03C04F9B01C0A1C03E
:10039000DF93C0912001DD27C95DDE4F4F9B02C076
:1003A000DF91EBCF2F930F931F9309B12FEF07FB33
:1003B00020F94F933F9319B14FEF012707FB21F924
:1003C0003BE031C04E7F012F19B1216028C0102FB2
:1003D0004D7F2260000009B129C04B7F2460012FAE
:1003E000000019B12BC019B1477F28602AC04F7E89
:1003F00009B120612CC04F7D19B120622FC04F7B05
:1004000009B1206432C0422709B149934FEF00007F
:10041000102717FB20F919B11478C9F1297F91F23F
:10042000012707FB21F909B1237F89F2315058F1E7
:10043000102717FB22F919B1277E79F2012707FB54
:1004400023F92F7C81F209B1102717FB24F92F79AA
:1004500071F200C019B1012707FB25F92F7359F27A
:1004600000C009B1102717FB26F9223040F200C066
:1004700019B1012707FB27F9243028F64F772068A8
:1004800019B10000F9CF11E01CBB002717C03B5089
:100490003195C31BD04011E01CBB0881033CE9F03F
:1004A0000B34D9F020911E011981110F1213EDCFD9
:1004B000093641F10D3211F0013E39F70093250163
:1004C0003F914F911F910F912F91DF91CCB3C0FDC0
:1004D00051CFCF91CFBFCF911895209125012223E5
:1004E00079F310912301112311F5343012F1309377
:1004F000230120931F01109120013BE0311B309319
:10050000200117C00091230101308CF40AE53091DD
:10051000010134FD10C000930101C3E1D1E00FC01F
:100520002795A8F45150A9F4220F0000F9CF4AE50D
:1005300003C042ED01C0432FC4E1D0E032E01AB164
:1005400014685F9A1AB90BB120E414E85F9301278D
:1005500056E00BB9279520F4515021F4220FF9CF22
:10056000012756E000003B5A0BB9D0F2279528F43A
:10057000515029F4220F0000F9CF012756E02795AA
:100580000BB920F4515021F4220FF9CF012756E086
:10059000299133230BB921F60B7710912401110F08
:1005A000C651D0400BB911F010931E0111E01CBBD5
:1005B00000681AB11B77402F4B775F9100C000C0D5
:1005C0000BB91AB94BB97CCFFC013381932F44810D
:1005D000842F2281203339F44370E42FF0E0EE5F62
:1005E000FE4F80810895283529F431110EC0E1E0D5
:1005F000F0E006C0203599F431110CC0E0E0F0E0E5
:1006000089E08093570084910895383019F5E3E02C
:10061000F0E0F6CF3830F1F4E2E0F0E0F1CF203254
:1006200021F4FC01EE0FFF1F06C0283231F4FC015B
:10063000EE0FFF1F319684910895203A09F434C2D9
:10064000203C19F4658138D205C02F3F19F481EFA1
:100650008093110180E008951AB880E48BB981E09D
:1006600085BF82E085BF2FEB84ED91E02150804073
:100670009040E1F700C0000080913D01877F21F4A8
:1006800080913E01882381F04E9B0EC0F894579ACA
:100690001BB81DBA1092690081E085BF15BEE091BC
:1006A0000A01F0910B0109958EEF8093110184B737
:1006B000877F84BF88E10FB6F89480936000109222
:1006C00060000FBE14BE8091690082608093690053
:1006D000E89A579AEFE7F5E829E0E150F04020402A
:1006E000E1F700C00000579878948091230183506F
:1006F00087FD46C190912001CCE0D0E0C91BD10913
:10070000C95DDE4F90911F019D3209F0B9C088305C
:1007100009F034C183EC809313018AE580930101D1
:10072000109212014881842F807639818823B9F193
:1007300086E091E09093220180932101333031F4DF
:10074000CE0142DF8093090124E090C0353019F1D9
:100750003A3009F18CEF830F863098F48A819B81BF
:100760009093100180930F013930B9F08E818093FE
:100770000E018D81827080930D0130930C012FEF5B
:100780006FC080911101323011F48E7F01C0816001
:100790008093110102C021E069C020E067C08A8116
:1007A00010921C01311106C010921D018CE191E0E4
:1007B00022E050C0353019F4809324013DC036301A
:1007C000A9F59B81913019F488E990E704C0923033
:1007D00041F486E890E7909322018093210122E181
:1007E00021C09330F1F4811108C084ED90E790931B
:1007F00022018093210124E015C0813041F488EB6F
:1008000090E790932201809321012CE10BC082306C
:1008100041F48AEA90E790932201809321012EE02F
:1008200001C020E080E48093120118C0383079F0D4
:10083000393031F4809326018CE191E020E00AC048
:1008400021E03A3009F020E08CE191E003C086E23B
:1008500091E021E090932201809321012F3F31F418
:1008600047FD2E8180E88093120107C08F8181119E
:1008700004C08E81821708F4282F209300017EC0C7
:100880009091120197FF7AC090910E01E82E98176F
:1008900008F4E92E9E1990930E01DD24D394911152
:1008A000D12CF12CFE1408F066C020910C0180912F
:1008B0000F0190911001273078F08E010F5F1F4FCC
:1008C00068819C012F5F3F4F3093100120930F01EF
:1008D000F3D0F394E801E6CF8115904708F04CC0BF
:1008E000F394F394F894E0910F01F0911001899141
:1008F000999121E00C0120935700E89511247894F8
:1009000080910F01909110010296909310018093B5
:100910000F018F779927892B59F0DD2009F4C2CF79
:10092000FE1408F4BFCF80910D01882309F4BACFDB
:10093000F894E0910F01F0911001329783E08093D9
:100940005700E895789407B600FCFDCFF894E09145
:100950000F01F0911001329785E080935700E895E0
:10096000789407B600FCFDCFF89481E1809357009E
:10097000E895789497CFD11010920001109223013E
:100980008091010184FF6CC0809100018F3F09F4C8
:1009900067C0F82E893010F028E0F22E8F1980936E
:1009A00000018091130198E8892780931301FF20AB
:1009B00009F449C08091120187FF27C080910E0180
:1009C0008F1508F4F82E8F1980930E01E0900C011A
:1009D000C4E1D1E084E191E0FC2FF81BFF1598F50C
:1009E00000910F0110911001F6E0FE1518F4C801F6
:1009F0005BD002C0F8018491888321960F5F1F4F5E
:100A00001093100100930F01E5CFE0912101F091C7
:100A1000220186FF0BC084E191E0DC0124912D933B
:100A200031962F2D280F2A13F9CF09C084E191E0C8
:100A3000DC0121912D932F2D280F2A13FACFF0934B
:100A40002201E09321016F2D84E191E08CDC84E0B0
:100A50008F0D8C3019F09FEF90930001809301016E
:100A600084E199B1947831F48150D9F7109224013E
:100A700010921E0180911101803130F04E9B0FC009
:100A800080911101805109C04E9909C080911101D6
:100A9000823028F080911101825080931101809161
:100AA0001101811122CEF2CDF999FECF92BD81BD07
:100AB000F89A992780B50895262FF999FECF1FBA85
:100AC00092BD81BD20BD0FB6F894FA9AF99A0FBE77
:100AD00001960895F894FFCFFF5A1E950F00FA0172
:100AE000DC0102C005900D9221503040D8F70895E6
:100AF000AF92BF92CF92DF92EF92FF920F931F932C
:100B0000CF93DF93CDB7DEB7C058D1090FB6F894B5
:100B1000DEBF0FBECDBF88E10FB6F89480936000B2
:100B2000109260000FBEF89419822091000130915C
:100B3000010180E090E0F901E80FF91F65917491DF
:100B4000FC01F059459154916417750719F081E043
:100B5000898305C002968A3C48E0940761F7898141
:100B6000882309F493C058E6C52E50E7D52EE12C12
:100B7000F12CB701A601407820E830E0CE010196C3
:100B8000AEDFC701B6016856724F8F4F9F4F08E422
:100B900010E020E830E0AE014F5F5F4FBADA80E846
:100BA000C80ED11CE11CF11C48E6C41642E7D4066D
:100BB000E104F104F1F6C12C40E7D42EE12CF12C34
:100BC000560180E7B81A40E850E06FEF70E0CE01C0
:100BD000019670D040910001509101014A0D5B1DBA
:100BE000662757FD6095762F20E830E0CE0101960C
:100BF00076DF0FE510E020E830E0AE014F5F5F4F99
:100C0000C701B60186DA40E8C40ED11CE11CF11C14
:100C1000C11483E7D806E104F10491F63AECE32E1F
:100C200038E0F32EEA18FB0840E850E06FEF70E080
:100C3000CE0101963FD0970141E8E416F10410F08F
:100C400020E830E040910001509101014A0D5B1D08
:100C5000662757FD6095762FCE01019640DFB501DE
:100C6000705980E090E008E410E020E830E0AE0148
:100C70004F5F5F4F4EDA80E8A80EB11C40E8E41ADF
:100C8000F1088AECA81688E0B80670F280E090E0DF
:100C9000C058DF4F0FB6F894DEBF0FBECDBFDF9157
:100CA000CF911F910F91FF90EF90DF90CF90BF9069
:100CB000AF900895DC0101C06D9341505040E0F7C2
:060CC0000895F894FFCF37
:020CC600140216
:00000001FF
