:100000000C947A000C94E7010C9497000C949700E0
:100010000C9497000C9497000C9497000C94970004
:100020000C9497000C9497000C9497000C949700F4
:100030000C9497000C9497000C9497000C949700E4
:100040000C9497000C9497000C9497000C949700D4
:100050000C9497000C9497000C9497000C949700C4
:100060000C9497000C949700090222000101008073
:100070003209040000010300000009210101000110
:10008000222A000705810308000A1201100100005E
:100090000008424255F0000101020001120347002E
:1000A00061006D00650050006100640031001803BC
:1000B0006C00610062002E006B006A006C00720030
:1000C0002E0064006B000403090405010905A10169
:1000D000A1000509190129041500250195047501E0
:1000E000810205010930093115FF250195027502CC
:1000F0008102C0C011241FBECFEFD8E0DEBFCDBF4C
:1001000011E0A0E0B1E0ECEDF6E002C005900D9248
:10011000A230B107D9F711E0A2E0B1E001C01D9211
:10012000AB33B107E1F70E9441030C946C030C94CC
:100130000000CF93C62F2091100124FF07C020910B
:10014000110138E823272093110103C02AE52093E9
:100150001001DC01E2E1F1E09C2F9E0F8D91819373
:10016000892F8E1B1816D4F36C2F82E191E00E9428
:10017000E301CC5FC0931001CF910895CF93DF933B
:1001800080912101835087FDA4C090911E01209190
:100190001D012D3209F09BC0883009F098C0CCE0D9
:1001A000D0E0C91BD109CB5DDE4F83EC8093050104
:1001B0008AE580930101109202018881807621F006
:1001C000CE010E9421037AC09A8110920E0189818A
:1001D000811106C010920F012EE031E082E06AC06A
:1001E000853019F49093220162C0863009F049C02D
:1001F0008B81813019F48AE890E024C0823041F488
:1002000088E690E09093200180931F0182E235C040
:100210008330F1F4911108C086EC90E090932001B6
:1002200080931F0184E029C0913041F48EEA90E070
:100230009093200180931F0188E11FC09230E1F468
:100240008CE990E09093200180931F0182E115C01A
:10025000813241F48AE790E09093200180931F015E
:1002600089E00BC0823241F48AEC90E09093200147
:1002700080931F018AE201C080E090E49093020124
:100280001DC0883069F0893019F4909324010FC0A3
:100290008A3049F08B3059F48BE48093110107C008
:1002A00024E231E002C02EE031E081E003C02EE024
:1002B00031E080E03093200120931F019F81911154
:1002C00004C09E81981708F4892F80930001109232
:1002D00021018091010184FF47C0809100018F3F7F
:1002E00009F442C0C82F893008F0C8E08C1B809305
:1002F00000018091050198E8892780930501CC23AE
:1003000031F120911F01309120018091020186FF7F
:100310000BC0A6E0B1E0F9018C2F8A0F94919D9358
:1003200031968A13FBCF09C0D901E6E0F1E08C2FAA
:100330008E0F9D9191938E13FCCF8FEF8C0F90E0D9
:100340000196820F931F9093200180931F016C2FC1
:1003500086E091E00E94E301CC5FCC3019F08FEF92
:1003600080930001C093010184E199B1947831F444
:100370008150D9F71092220110921C01DF91CF9188
:100380000895E9E6F0E0808183608083E89A8BE459
:10039000809311018AE5809310010895A82FB92F49
:1003A00080E090E041E050EA609530E009C02D9196
:1003B00082279795879510F084279527305EC8F39C
:1003C0006F5FA8F30895EADF8D939D930895CF930F
:1003D000CFB7CF93C3954F9BE9F74F9B09C04F9B76
:1003E00007C04F9B05C04F9B03C04F9B01C0A3C0DC
:1003F000DF93C0911E01DD27CB5DDE4F4F9B02C016
:10040000DF91EBCF2F930F931F9309B12FEF07FBD2
:1004100020F94F933F9319B14FEF012707FB21F9C3
:100420003BE031C04E7F012F19B1216028C0102F51
:100430004D7F2260000009B129C04B7F2460012F4D
:10044000000019B12BC019B1477F28602AC04F7E28
:1004500009B120612CC04F7D19B120622FC04F7BA4
:1004600009B1206432C0422709B149934FEF00001F
:10047000102717FB20F919B11478C9F1297F91F2DF
:10048000012707FB21F909B1237F89F2315058F187
:10049000102717FB22F919B1277E79F2012707FBF4
:1004A00023F92F7C81F209B1102717FB24F92F794A
:1004B00071F200C019B1012707FB25F92F7359F21A
:1004C00000C009B1102717FB26F9223040F200C006
:1004D00019B1012707FB27F9243028F64F77206848
:1004E00019B10000F9CF11E01CBB002719C03B5027
:1004F0003195C31BD04011E01CBB0881033CF9F0CF
:100500000B34E9F020911C011981110F1213EDCF6A
:100510004A81441F093641F10D3211F0013E29F79D
:10052000009323013F914F911F910F912F91DF91E4
:10053000CCB3C0FD4FCFCF91CFBFCF9118952091B5
:100540002301222379F310912101112369F534301D
:100550006AF13093210120931D0110911E013BE0AF
:10056000311B30931E0122C0009121010130E4F4BF
:100570000AE54F7049F43091010134FD19C0009330
:100580000101C5E0D1E018C03091100134FD10C068
:1005900000931001C1E1D1E00FC02795A8F451509C
:1005A000A9F4220F0000F9CF4AE503C042ED01C0D3
:1005B000432FC4E1D0E032E01AB114685F9A1AB94F
:1005C0000BB120E414E85F93012756E00BB927959F
:1005D00020F4515021F4220FF9CF012756E00000FA
:1005E0003B5A0BB9D0F2279528F4515029F4220F29
:1005F0000000F9CF012756E027950BB920F45150A0
:1006000021F4220FF9CF012756E0299133230BB9AA
:1006100021F60B7710912201110FC651D0400BB972
:1006200011F010931C0111E01CBB00681AB11B777C
:10063000402F4B775F9100C000C00BB91AB94BB97E
:1006400071CFFC01808180768032C9F48181813054
:1006500039F423E031E03093200120931F01089505
:10066000823041F484E091E09093200180931F0157
:1006700081E008958A3019F483818093040180E039
:1006800008952FE088E190E00FB6F894A895809344
:1006900060000FBE209360008FEF85B914B888B951
:1006A00017B88BE78BB984E88AB982E08AB985E00C
:1006B00085BD0E94C1017894CBE5A8950E94BE003B
:1006C0008091100184FFF9CFC093030161E083E0C2
:0C06D00091E00E949900F1CFF894FFCF58
:0206DC00FF5AC3
:00000001FF
